:020000021000EC
:10C0000000800020DD120200251302002713020029
:10C010000000000000000000000000000000000020
:10C0200000000000000000000000000029130200D2
:10C0300000000000000000002B1302002D1302007E
:10C040002F1302002F13020009CF01002F1302004B
:10C050002F1302000000000089D701002F130200F7
:10C060002F1302002F1302002F1302002F130200C0
:10C070002F1302002F1302002F1302002F130200B0
:10C080002F130200B1C401002F1302002F1302006E
:10C0900095C501002F130200A91202002F13020000
:10C0A0002F1302002F130200000000000000000008
:10C0B0000000000000000000000000000000000080
:10C0C000164B002B00D1144B9D46402292029A1A27
:10C0D000924600218B460F461348144A121A00F06C
:10C0E00067F80F4B002B00D098470E4B002B00D069
:10C0F00098470020002104000D000D48002802D0C0
:10C100000C4800E000BF00F02DF82000290003F0EB
:10C11000E7F800F011F8C046000008000080002099
:10C1200000000000000000006828002054310020BA
:10C130000000000000000000084B10B5041C002B9C
:10C1400002D0002100E000BF054B1868836A002B75
:10C1500000D09847201C00F033F8C04600000000D3
:10C16000FC2202000E4B70B500251E1C0D4CE41A7B
:10C17000A410A54204D0AB00F35898470135F8E766
:10C1800006F0AEF8084B00251E1C084CE41AA4105B
:10C19000A54204D0AB00F35898470135F8E770BDCD
:10C1A00068280020682800206828002068280020CF
:10C1B000031C8218934202D019700133FAE77047CA
:10C1C000FEE7C046F8B54D465F4656464446F0B4D5
:10C1D000224B1978994600292AD0214B00259846F0
:10C1E000204B214F01269A4603E00135EDB28D42E6
:10C1F0001ED243461B68321C9C46EC0064442078E7
:10C200003B6882401342F0D093433B6001F0B2FAA6
:10C21000331C22785146934009680B40011C914021
:10C220008B420BD04B4601351978EDB28D42E0D3ED
:10C230003CBC90469946A246AB46F8BD616863781F
:10C240008B460029EED0591E4C424C41211A4B42DC
:10C250004B41101CD9B2D847E4E7C04670280020F3
:10C260006C280020742800207C280020F8B5124D8E
:10C27000071C286800F05CFD002807D10124BC40A1
:10C280000E4E3368234202D0A3433360F8BD381CFE
:10C2900001F070FA0A4A136800280BD02343136098
:10C2A000336828681C43074B00221968346000F08B
:10C2B000B1FCEBE7A343F2E7782800207C280020BC
:10C2C0007428002068280020F0B54F464646C0B4C8
:10C2D000141C071C83B00E1C0720042A04D803B0CA
:10C2E0000CBC90469946F0BD01F0BAF800282FD05A
:10C2F0001A4B1B4A1F601B4B751E1E701A4BEDB26A
:10C300001C6000231360194A1360002E1AD0184BCA
:10C3100001AC994603230026984600E01D1C4246C6
:10C32000EB00FB182270A670E6709A78187862709D
:10C33000211C4A4601F00AF90028D0D16B1EDBB25D
:10C34000002DEBD100210B4A0B4800F02FFCC6E773
:10C3500001F04CF80028CBD0C1E7C0466C28002083
:10C360007428002070280020682800207C280020E5
:10C370006DC20100C5C101007828002070B5094DCB
:10C380002B78002B0BD00024074E3268E300985C1A
:10C39000012101F0A1F92B780134A342F5D8002046
:10C3A00070BDC046702800206C280020BFF34F8F5E
:10C3B000024A034BDA60BFF34F8FFEE70400FA0531
:10C3C00000ED00E010B500290DD00923002A01D1AD
:10C3D000181C10BD541E2240FAD182600160848076
:10C3E000C2600023F4E70E23F2E7C046031C10B539
:10C3F0009C888068DA68121A0420944200D210BD2A
:10C40000DA68002014401A681155DA680132DA60DF
:10C41000F5E7C04610B58468C268031C0520944245
:10C4200009D098689A8802401868825C00200A70D7
:10C430009A6801329A6010BD80218023184A8902CF
:10C44000D1508022D221174B520289005A504039D4
:10C450005A5001222F205A600138C046C046C046BB
:10C46000C046C046C046C046C046C046C046C0469C
:10C47000C046F1D19A6000230B4A2F201360013887
:10C48000C046C046C046C046C046C046C046C0467C
:10C49000C046C046C046C046F1D1044A137070473A
:10C4A00000E100E00010014080280020A8280020C2
:10C4B000A021F0B5002247462C4B490080B45A50C9
:10C4C00004315A5004315A5004315A504C395A50A0
:10C4D00004315A50264A17687A1C38D0254A00255C
:10C4E0009B58254A254E14681C1B254B2402240A00
:10C4F000984601E07B1C1BD03268FB009446DB1998
:10C500009B0063445A68A24212D8A41AAD181F6A4D
:10C510009A69D96943461B68002B1BD0101C9847A9
:10C520000028E7D000210022FFF740FF7B1CE3D169
:10C53000144B15491A780B789A420ED0134A9B0077
:10C540009D5080218023124A49035B00D15004BCD6
:10C550009046F0BD081C9047CCE70132D3B2022BC5
:10C5600001D00B70EAE700230B70E7E700100140F1
:10C57000982800200405000080280020882800203A
:10C58000842800209428002095280020A02800203E
:10C5900000E100E0F0B55F4656464D464446F0B433
:10C5A000C94BCA4A1B68CA498DB0079309781378EA
:10C5B000994200D154E20133DBB2022B00D11AE2DE
:10C5C0001370C44A9B009B58079A9C46624406938A
:10C5D0001302BD4A1B0A136001230893BE4B0025BA
:10C5E0001B681E1C0B93BD4B1B78191C0A1C039364
:10C5F000BB4B013A1B68D2B20593BA4B0291186843
:10C60000B14B02921B680A93B74B1B780993331CFA
:10C61000FF2A3DD00599D200894691444A464946B1
:10C6200012784978B44601904E468A4228D07768FD
:10C630005400A418B8460132B778D2B2BF1A781E97
:10C640008741E4007F4244443A402778022F00D1DA
:10C65000DAE0032F00D0D4E06046013000D1D0E012
:10C6600063460198D900CB189B00C3181D751B6A3F
:10C67000591CF7D11F1C01907178BC468A42D6D153
:10C68000029A0198013AD2B266460292FF2AC1D1BB
:10C69000694624240919944A0978059611708A4A32
:10C6A0000A9911608C4A1360089A002A00D0A4E10C
:10C6B0000B9B059F9B1B5A1E9341DBB206930123E4
:10C6C0005B429C46864B1B680493864B1E687E4BE0
:10C6D0001B689B46804B1B680193834B1B7802931E
:10C6E00000239946039B013BDBB20393FF2B00D150
:10C6F000FEE0049ADB0092469A446346013340D040
:10C700006346DC006444A4003419236AE0469C4676
:10C71000A268E1685B467548D31A1B021B0A834274
:10C7200066D85B1863604B46A360E3600123237502
:10C73000023B23627B1C00D1BDE0FB00DB199B00A8
:10C74000F318606859683D1C884209D8A5E0D300F9
:10C750009B189B00F3185968814200D3A8E0151C70
:10C760001A6A401A531CF2D1EB005D19434622624B
:10C770003A1CAD00751960602B62171C63460133CB
:10C78000BED1534652461B7852789A42AAD052469E
:10C790005268580090465246C0180133DBB21370FD
:10C7A0009278C00040449A4200D189E043683A1C24
:10C7B00098460378012BE0D14346DC004444A400B2
:10C7C0003419237D002BD8D18268A260C168E16052
:10C7D000056925614069E061029800289AD0A3604C
:10C7E00000225B464148D31A1B021B0A834298D998
:10C7F0005B469A1A1202120A8A4256D2891A61605C
:10C8000091E76746BC4639E76468E000071980464F
:10C810000198BF008146BA46CA445046007D67462B
:10C820008146002800D128E76146013114D06445D3
:10C8300000D1CEE0049201989B4602E09C4210D0C9
:10C840001F1CF900C919890041180B6A5A1CF5D13F
:10C850005B466746049A019051460D757178BC4657
:10C860000CE7049A01905B46BC4200D19CE0444432
:10C8700080466746A40044446068246A84460C628B
:10C88000611CE9D00198E100804609198900414402
:10C8900048681F1C60444860DEE7091A5960424638
:10C8A000434627620193171C68E74B4663603AE7EB
:10C8B000091A596058E7434642460193171C5DE741
:10C8C00053464A461A7071E78028002094280020B9
:10C8D00095280020A0280020982800208C280020DF
:10C8E00090280020882800209C280020FEFF7F0040
:10C8F000644B019A1A60059B9F4200D16DE07B1C3E
:10C9000000D1BBE0604BFA00D7191B68BF00DB19F0
:10C910005C685E485E4B5F4DC1585F4B2E781B686C
:10C92000CA1A1202120A03329046002E1FD1802624
:10C93000D1277602BF00C651403FC651C022802792
:10C94000564EBF025200B7503760012606602F20B6
:10C950000138C046C046C046C046C046C046C04674
:10C96000C046C046C046C046C046F1D12E704246C1
:10C97000A24200D2221CA820D2181202130A434A53
:10C98000C000135042485B1A12581B02521A12027E
:10C99000120A03321B0A9A4223D9802180233F4A7C
:10C9A00089025B00D1501CE06346DB00634484468F
:10C9B0000C1C9B0063441B6A1F1C581C00D05BE7C7
:10C9C0000127324887604846099000201F1C0A90C2
:10C9D00052E7544653465146EDE7069B002B00D0E4
:10C9E0008DE700232E4A13700DB03CBC904699464B
:10C9F000A246AB46F0BD0023E2E5234A00241768B7
:10CA0000012252429446002260469046721C1FD07A
:10CA1000F20092199200BA185168069DA94223D8D3
:10CA20006B1A0693434653604346641811691375A5
:10CA30008C46136A002908D0079910626118090210
:10CA4000090A91606146301CD1601E1C721CDFD146
:10CA50000C4A84461360012305960693371C31E681
:10CA6000002306930893B9E584460648491B0360F2
:10CA70000123059651600693371C23E6FFF7DCFC83
:10CA8000AFE7C04698280020882800200010014009
:10CA900004050000A82800208028002000E100E014
:10CAA0009C280020F8B51E1C051C0F1C141C072018
:10CAB000B30700D0F8BD002EFCD0FFF7BDFC2E4B15
:10CAC000069A1A602D4B1F702D4B1E60002F51D0FF
:10CAD000331C0022F900C819800030181A701A752A
:10CAE00024338342FAD1C919890073180321181C11
:10CAF000244A1830117061000919234AC90058608E
:10CB0000401813604118002259610121D86080202B
:10CB10009C709C729C74C5241A705A701A725A7256
:10CB20001A745A74194B49421960194B40031A7010
:10CB3000184BA4001A70184B8132FF3298501A59C2
:10CB40000131FF318A433F390A431A51A12218604B
:10CB5000C4201249D2008D5080001C58104A224037
:10CB6000C024240222431A500E4B0020CA580E4BF8
:10CB70001A609FE70021B6E784280020962800204D
:10CB8000882800208C280020902800209828002049
:10CB9000942800209528002000E100E000100140CA
:10CBA000FF00FFFF0405000080280020F0B5174BB0
:10CBB00094461E68002E1DD0002A19D0002817D0D8
:10CBC000134B1F78002F11D03378002B14D0341C56
:10CBD0000023243407E0261C2434251C243D2D7812
:10CBE0001A1C002D09D00133BB42F4DB0420F0BD38
:10CBF0000720FCE70820FAE7002201233370634690
:10CC00007170B36102600020F1E7C04688280020FF
:10CC100096280020F0B5474680B43D4B1C68002C98
:10CC200047D03C4B1D780723854203D8181C04BC11
:10CC30009046F0BD0429F9D9C3001B189B00E418E5
:10CC400025780823012DF1D163780024A046012B1B
:10CC500031D0314B10245B68DB05DB0D2FD12F4B1E
:10CC60001D682D196B78AC785E1C341B671EBC41A7
:10CC7000644226402C78B4421FD05C00E3186C68F4
:10CC8000DB00E4180423002CD0D0033B2370606049
:10CC9000234B2448C358E160A360434680212361AD
:10CCA00080236261204A5B0049036E70D1500023EB
:10CCB000BCE70823BAE78846CBE70423B6E7103B76
:10CCC000DDB26CB2002C13DBA408174DC034A400F5
:10CCD000645903252B40DB00DC4023069B0FDBB2AD
:10CCE0000024012BBBD00834032BB8D00834B6E79E
:10CCF0000F230E4C2B40A446083B9B089B0063442B
:10CD00005C6803232B40DB00DC40E3B29B09E6E7D1
:10CD1000882800209628002000ED00E090280020C0
:10CD2000040500000010014000E100E018ED00E003
:10CD300030B5334B1A68002A34D0324B19780723A8
:10CD4000814201D8181C30BDC3001B189B009A5C9F
:10CD50000823012AF6D12C4B0F325B68DB05DB0D73
:10CD600024D12A4B196889184B788A785C1CA21A3E
:10CD7000551EAA41524214400A78A24214D05A00C9
:10CD8000D3184A68DB00D2180423002ADAD0023B09
:10CD9000137050604C7080211D4AFE334903D150FE
:10CDA0000023CFE70823CDE70423CBE7103BD9B21C
:10CDB0004AB2002A13DB92081549C0329200525839
:10CDC00003210B40DB00DA4013069B0FDBB200228D
:10CDD000012BC6D00832032BC3D00832C1E70F2382
:10CDE0000C4A0B409446083B9B089B0063445A68DE
:10CDF00003230B40DB00DA40D3B29B09E6E7C046D1
:10CE0000882800209628002000ED00E090280020CF
:10CE100000E100E018ED00E070B5161C0C1C8D1848
:10CE2000002A05DD2078013400F060FAAC42F9D127
:10CE3000301C70BD10B50C1C201C00F04FFA0528EA
:10CE4000FAD0012010BDC04630B585B000F092FC8C
:10CE500000282FD1274C2378DBB2002B05D0032BE1
:10CE600001D10223237005B030BDA0220421224B42
:10CE7000D2009950012221481A608568C1688D420C
:10CE800022D02178022900D09A606B46D91DFFF785
:10CE9000C1FA002823D1C2218022174B89005A50A1
:10CEA0006946C8791649585002212170C12189006C
:10CEB0005A50D8E70F4A1378DBB2012B06D0022B69
:10CEC000D1D103231370CEE72270CCE7002111707B
:10CED000094AD3605360A023DB00D150C3E701238C
:10CEE000054A02A8D360237002330370054B1B6808
:10CEF0009847B8E7C028002000200040B028002054
:10CF00001C050000AC280020842210B5414B5200C3
:10CF1000995884B000292DD18E223E4B5200995849
:10CF2000002914D192223B4B5200995800290CD071
:10CF3000002199509021C9005A5802A85A50022342
:10CF40000370354B42601B68984704B010BD002148
:10CF5000324C99502278D2B2002AE3D0022A21D949
:10CF6000032ADFD1023A2170DA605A60A022D2008F
:10CF70009950D7E700219950A322D2009958284C04
:10CF8000C9B2201CFFF732FA00282AD1A268E36850
:10CF90009B1A012BC0D1204A02AB18701268181CD2
:10CFA0009047B9E71F488168C26891422DD0227826
:10CFB000022A01D001229A606B46D91DFFF72AFA96
:10CFC000002817D1C2218022124B89005A5069468D
:10CFD000C8791549585002212170C12189005A5041
:10CFE000A0E7012202AB1A700B4A03901268181CCA
:10CFF000904791E70123074AD3602370032302A8D7
:10D000000370054B1B6898478CE70122DA60227099
:10D01000F4E7C04600200040AC280020C0280020D3
:10D02000C4280020B02800201C050000F0B55F4691
:10D0300056464D464446F0B400279A4E89B03770A4
:10D04000994F3A600722002909D08A880D1C041CD8
:10D05000096896480193FFF7B5F9021E07D0101C26
:10D0600009B03CBC90469946A246AB46F0BD904BF9
:10D07000AA89A968181C9846FFF7A4F9021EEED1E8
:10D08000A02203216378D205C133FF339B0099505E
:10D090002378C133FF339B0098506178854B864AD3
:10D0A00099502178854A9950A168854A99506279AA
:10D0B000002A48D00E21834A99502379022B5FD051
:10D0C000012B43D0A02204217A4BD2009950002298
:10D0D0000531FF315A507B4814315A5019580132EA
:10D0E00091431950012164384942195008301950B0
:10D0F0009A601A603270129B1B88002B05D1724A0D
:10D100001378591C1170129A13800121C222694BA5
:10D11000494292009950A121043A89009950C023B4
:10D1200004216A4A5B00D150019BC0209D01FF236E
:10D13000800014581D40664B2D0423401D4315509C
:10D14000116000228BE75F495A50B6E7A021042006
:10D15000584AC900505000210530FF30115014309A
:10D1600011505848115819431150A221E078C900B4
:10D170005050A07808395050936013603370BAE76C
:10D1800000F06EF9002804D100F030F9021E00D042
:10D1900065E700239946002304A90B804B468B705A
:10D1A00001234B70A0789A4600F062F9021E00D06D
:10D1B00055E7404B01229B46A22359465242DB00D1
:10D1C000CA50A278083BCA503E4A8B5851460B437E
:10D1D00059468B50032305A90B704B464B708B703F
:10D1E000CB703C4AE07800F0B1F9051C021E00D07B
:10D1F00035E7E078012100F06FFAE07800F0BAFA44
:10D200003378DBB2002807D0012B0DD0022B00D0E1
:10D2100071E7032333706EE7002B0ED0032B00D091
:10D2200069E70223337066E74A4632705A46D36094
:10D230005360A023DB00D5505DE7A02304225946AC
:10D24000DB00CA50524643460A609A68DB689A423D
:10D250001AD03378022B01D052468A6002ABDC1D13
:10D260004046211CFFF7D6F8002810D1C2218022A9
:10D27000104B89005A5020781749585002213170BC
:10D28000C12189005A5036E75346337033E70123F2
:10D29000084A06A8D3603370023303703B6898478E
:10D2A00029E7C046C0280020AC280020C428002060
:10D2B000B0280020002000400C05000014050000EC
:10D2C000240500006C0500006428002000E100E057
:10D2D000FFFF00FF49CE01001C05000008B5011C3E
:10D2E0000148FFF797F808BDC428002070B51A4D13
:10D2F000011C84B0281CFFF779F8184C061C237811
:10D30000DBB2012B02D0301C04B070BD2278022A9F
:10D3100001D0134A93606B46281CD91DFFF77AF899
:10D3200000280ED1C22180220D4B89005A50694637
:10D33000C8790C49585002212170C12189005A50E6
:10D34000E1E70123064A02A8D36023700233037089
:10D35000054B1B689847D6E7B0280020C02800205E
:10D36000002000401C050000AC280020F0B500287B
:10D3700020DBFF271B4B03229C463B1C8408C02656
:10D38000C0B20240D2009340A4006444B600A55944
:10D390009D438B013B409340191C2943A1511F23FE
:10D3A00018401E3B8340C022181C0E4B5200985060
:10D3B0001860F0BDFF260C4A03249446321C0F234C
:10D3C000C0B20440E400A2400340083B9B089B001D
:10D3D0006344DD6995438A013240A240111C294310
:10D3E000D961DCE700E100E000ED00E010B51A4C87
:10D3F00008202378002B00D010BD4C22FF21013BD8
:10D40000A3540132A1540132A3540132A354013276
:10D41000A354E362013223636363A363E36323647E
:10D420006364A3640238FE39A3546360A360E360BD
:10D4300023616361A361E36123626362A362FFF717
:10D4400095FF8021C123054A9B000906D150012385
:10D4500000202370D0E7C046D428002000600040A0
:10D46000024B1878431E9841C0B27047D428002060
:10D47000F0B50425314A041C131828335D570820E1
:10D48000013500D0F0BD8878002836D053680133CC
:10D490004DD0936801334CD0D36801334BD013691E
:10D4A00004200133EED10323254DA227AC461019E9
:10D4B000283003719B00FF00D21800206344DE591E
:10D4C000204D50603540802608784A78DD51DD597E
:10D4D00076031205AC4632400504C026281CB6026D
:10D4E00030400243F820151C4001220210402A1C43
:10D4F000024360460243DA5101E0FE221A71231C06
:10D50000A0220320C133FF339B00D20598504B78F3
:10D51000012B05D00120A0400B4BD0500020B1E7DB
:10D52000A3401C1CA123DB00D4500020AAE7002349
:10D53000BAE70123B8E70223B6E7C046D4280020A3
:10D5400000600040FFE0ECFF0C050000F0B547462E
:10D5500080B45E4C0825231828331E797F2E03D80B
:10D56000281C04BC9046F0BDCD78AC46002D4CD0B4
:10D570006568013500D19EE0042300269846731C9F
:10D580009D0067197F68013748D0B31C98453AD988
:10D590009D0067197F68013740D0F31C984532D948
:10D5A0009D0067197F68013738D0331D43452AD263
:10D5B0009D0067197F68013730D0731D984522D9C7
:10D5C0009D0067197F68013728D0B31D98451AD987
:10D5D0009D0067197F68013720D0F31D984512D947
:10D5E0009D0067197F68013718D0013398450AD923
:10D5F0009D0067197F68013710D00936B04502D900
:10D60000A36A013308D00425AAE76569013556D01D
:10D610000A2304269846B2E7092324252718DEB2F8
:10D62000283765193E716A606246002A02D1E31804
:10D63000443318718B78002B15D1031CA0254A7830
:10D64000C133FF3392009B00ED055A51CB78002B7C
:10D6500015D176B2A41944340B7822799B01134377
:10D66000237100257CE7A022D2059446E0250227FD
:10D6700083006344ED005A59BA435A51E6E7A224A5
:10D6800076B2134BB600F318E4000A781D5911491D
:10D69000000229401951F82149010840061CC02107
:10D6A0001004021C301C89021D590A4010432843F3
:10D6B0001851002554E700261E716260BAE7042560
:10D6C0001D712E1C62612B1CB1E7C046D4280020BE
:10D6D00000600040FFE0FCFF30B5234B1A182832F1
:10D6E000147962B2032A18DD9B1844331B799B0915
:10D6F000032B2CD0012B33D0C025AD02A023DB059A
:10D700009C46E02380006044DB00C4581749214058
:10D71000C150C2582A43C25030BD032CFCD8144B10
:10D72000A2259C46012390006044ED0044591C430F
:10D730004451101C644600254030800080B20551E1
:10D740000029E9D09340C1229200A350E4E7A2232C
:10D75000A022DB00D205D258012383401A42CBD14C
:10D760008025AD02CAE7C046D4280020FFFFFCFF99
:10D7700000600040A223A022DB00D205D358C340A2
:10D78000181C012318407047F0B544465F465646C2
:10D790004D46F0B4834A83B013680024012B64D053
:10D7A000814B1A68012A6CD0804B1A68012A00D17B
:10D7B00077E07F4B1A68012A00D182E07D4B002779
:10D7C0001A68012A00D18DE023070BD0E30700D5AA
:10D7D0009EE0A30700D5AAE0630700D5B5E02307C4
:10D7E00000D589E0002C06DB03B03CBC904699468E
:10D7F000A246AB46F0BDE023DB009846C0239B0267
:10D8000000246D4D994605E0032B00D1ADE00134B5
:10D81000062CE9D0231C4C33E95CC023081C984338
:10D820002B1828331B795BB2032BF0DD9B00EB1820
:10D830005A68002AEBD08B09A021C9058C460193B8
:10D8400083009C44414663465B5849460B40012196
:10D8500081401B0C0F42D7D0022BD8D1019B032B48
:10D8600000D19BE001999047D1E7C121534889003D
:10D8700041580B4294D04C4B14601A680134012A71
:10D8800092D1C1224D499200895802220A4200D108
:10D890008AE700211960454B14431A68012A00D019
:10D8A00087E7C12245499200895804220A4200D1E3
:10D8B0007FE7002119603E4B14431A68012A00D00B
:10D8C0007CE7C1223D499200895808220A4200D1D2
:10D8D00074E700211960374B14431A680027012AA6
:10D8E00000D071E71F6080231B061C43A022A223E7
:10D8F000D205DB00D75867E7304A314B2E4DD05860
:10D90000D158C0048903C00E890F2B69984769E775
:10D91000A2232A4ADB00D058D158274DC0048903DE
:10D920006B68C00E890F9847A30700D454E7254BB6
:10D93000224A214DD058D158C0048903AB68C00E8B
:10D94000890F9847630700D449E7A3231B4ADB00EC
:10D95000D058D158184DC0048903EB68C00E890F08
:10D960009847230700D43DE7C6E7019B032B00D06F
:10D9700078E780239B029A46414663465B584646B9
:10D980009B465946104B0B4061468B5163465146AE
:10D990009B5919430B1C61468B5163E7C0239B02C3
:10D9A0009A46E9E7006100400461004008610040D8
:10D9B0000C6100407C610040D428002000600040E1
:10D9C0001C05000014050000FFFFFCFF29DF704765
:10D9D00028DF7047F8B546464F46C0B4724C1E1C4F
:10D9E000237880460F1C151C002B1BD1131C3343BE
:10D9F0001FD102332370381CFFF7EAFF00280DD136
:10DA0000002D00D0CCE0002E00D0B9E043461B78BA
:10DA1000042B00D08AE00723002023700CBC904622
:10DA20009946F8BD062B00D9A8E0604A9B00D35860
:10DA30009F46012323705E4B5869431C00D1A3E02D
:10DA400080235B0519690904090C03F071FC031CB0
:10DA50008022520510691169126900040904013B12
:10DA6000000C090C92B2584379439208FFF7AEFFBD
:10DA70000028D3D102232370D0E74D4B5869431CB3
:10DA800000D189E080235B0519690904090C03F0C2
:10DA90004FFC031C80225205106911690004013BF0
:10DAA000000C09045843090C03F042FCFFF790FFF7
:10DAB0000028B3D107232370B0E780235B051869E2
:10DAC000AB000004000C4743D81943465A88196933
:10DAD0009208FFF77BFF0028A0D135439BD0062397
:10DAE000002023709AE780235B051969304A0904F6
:10DAF0005069090C4F43421C4CD019690904090CA8
:10DB000003F016FC80235B05196901380904090C30
:10DB100041432A1C381CFFF759FF002800D07DE73D
:10DB2000002E2DD143461B78042BD8D0052300208E
:10DB3000237073E78023AA0091465B0519691C4A8C
:10DB40000904090C4F43458850697F194F44421C12
:10DB50001ED019690904090C03F0EAFB80235B0558
:10DB60001B69411E1B041B0C59434D446918381C8A
:10DB7000321CFFF72BFF0028D4D04FE703204DE7DE
:10DB800004230020237049E780235B055B695FE77E
:10DB90005869E3E75869B5E780235B055B6979E776
:10DBA000032323703AE7C0460D2A00200023020019
:10DBB00000100010F8B54F464646C0B4454E3578C3
:10DBC000AB005C19A4003419221C9946231D984609
:10DBD000237908329768042B3BD0052B17D00F20F0
:10DBE000022B03D00CBC90469946F8BD3A4B2089D5
:10DBF0001B88E28861699B02C019D21AC918C01833
:10DC0000364B9A424FD89208FFF7E0FE1CE0802581
:10DC10006D052969381C0904090C03F089FB2A6980
:10DC20002D69238912042D04DF19120C431C2D0CBD
:10DC300042435D43E388BA1ADB19EB1A011C9208D0
:10DC40009B084046FFF7C6FE0028CBD10123B370E6
:10DC5000C8E7526822491301CB18188959895B68B3
:10DC6000BB4225D0022A27D0802464052169381CB4
:10DC70000904090C03F05CFB2269236912044D447A
:10DC8000120C1B04011C42431B0C0130AD0043432A
:10DC90007519E888BA1A3F18DB1B92089B084046A2
:10DCA000FFF798FED0E780225200FFF78FFECBE708
:10DCB0004143E3889942D5D180235B051969381C1B
:10DCC0000904090C03F034FB034B1B88C018FFF751
:10DCD0007FFEB9E7282900200E2A0020FF0300005C
:10DCE000F4290020F8B5164D071C06A800886E78A8
:10DCF000844604200A2E1BD02C783419E4B2092C57
:10DD000001D90A3CE4B2A0000419A4002C19002097
:10DD10006261221C607127710C3281C981C2E3806B
:10DD200063462381AB780020002B02D001366E7051
:10DD3000F8BDFFF73FFF6E781128F7D10020F5E717
:10DD400028290020F0B5474680B4554C82B0A3780E
:10DD5000002B26D00023534AA3701578082D24D019
:10DD6000022840D003281CD123789D00ED18AD0077
:10DD7000661973790133DBB27371032B00D182E032
:10DD8000FFF718FF021E0CD011280AD0F3686019A3
:10DD9000F4881F01317973690094434C0C303C596D
:10DDA000A04702B004BC9046F0BD022800D03F4A14
:10DDB00013706378002BF4D0FFF7FCFE021EF0D046
:10DDC0001128EED023789900CB189B00E518281C69
:10DDD000E968EC880E016B6929790094324C0C30AB
:10DDE0003459A047DDE73248237806889900CF18D8
:10DDF0000136B6B2BF000680E7198C463979022990
:10DE00003CD0052937D004292DD1072D05D0FF8816
:10DE1000B602BE4227DB002D25D1002515700580F6
:10DE20006278013A62705A1CD2B2092A01D91A1CCE
:10DE3000093A63449B00E5186B69281C98462270D8
:10DE4000EB88EA680093184B1201D3580C309C46BB
:10DE500000224346E047002301222B71EB80EA6059
:10DE60002B616B612B816378002B9AD0A378002BF8
:10DE700000D096E7A0E7072DF5D1CEE7FD88B602E2
:10DE8000AE42CADAEFE7301CF368F4881A01317940
:10DE900073690094044C0C3014590D22A04780E79C
:10DEA000282900200D2A0020F42900200C2A002017
:10DEB0000E2A0020002300222C20544910B50B808C
:10DEC0000121534C22541430225402302352023088
:10DED00023521030225402302352023022706270DA
:10DEE000A2702271E38023616361238122766383C0
:10DEF0006362A362A383E385A363E3632386E3648E
:10DF00002365E16021626163A164E1652352103001
:10DF10002254023023520230235210302254023055
:10DF200023520630215004302350043023500C3843
:10DF30002352103022540230235206302150043034
:10DF40002350043023500C38235210302254023016
:10DF500023520630215004302350043023500C3813
:10DF6000235210302254BA22A3520632A150043256
:10DF7000A3500432A3500C3A236663666367A36719
:10DF8000A3522167234A1380234B5869431C36D080
:10DF900080235B0519690904090C03F0C9F9802184
:10DFA000002249050B6902381B041B0C58431B4B0C
:10DFB00018601B4B1A601A819A815A81194B0832DA
:10DFC0001A70154B5869431C1DD009690904090CC6
:10DFD00003F0AEF980225205136911691B041B0C72
:10DFE000013809045843090C03F0A2F9FFF7F0FCCB
:10DFF000002803D101230C4AA370137010BD8023A5
:10E000005B055869CBE74869E4E7C0460E2A002063
:10E0100028290020042A002000100010082A0020CF
:10E02000F42900200D2A00200C2A0020F8B54446CF
:10E030005F4656464D46F0B4444B08241B78002BEF
:10E0400006D1201C3CBC90469946A246AB46F8BD82
:10E05000002872D0002970D00368002B6DD0802278
:10E060005205136987889BB2013C9F42E9D80F2F64
:10E07000E7D9C388002BE4D07B439846344BC34692
:10E080009A461B68051C9946324B0E1C5869CB44B6
:10E09000431C54D011690904090C03F049F980228A
:10E0A0005205136901381B041B0C58430724834590
:10E0B000C7D813699BB2434507DA1069391C80B28F
:10E0C00003F0BCF989B20029BBD10724BB07B8D142
:10E0D000214F033C38880128B3D04B464A461F4C99
:10E0E000736030600601A3195A602A68A251AA8899
:10E0F0001A81E988802559814A4300236D0509E08A
:10E1000029690904090C521A29690904090C89446E
:10E11000002A16D02969013389B29BB29142EFD30C
:10E12000802251465205126992B24A440A60A419EB
:10E130000130A3813880002483E70E2481E75069F1
:10E14000ADE7524649461160F1E7C0460C2A00206F
:10E15000082A002000100010042A0020F4290020C2
:10E1600030B5114B1C780823002C01D1181C30BD90
:10E17000002806D0002A04D00368002B03D0072310
:10E18000F4E70E23F2E7094C2568002DF7D0258926
:10E1900040686943091860896468684300198142CE
:10E1A000EDD213605160E1E70C2A0020F429002031
:10E1B000F0B5474680B41E4C051C247882B0082078
:10E1C000002C03D102B004BC9046F0BD00292CD035
:10E1D000002D2AD02C680138002CF3D1154C26686C
:10E1E000002EEFD06E686789B04626897743B44623
:10E1F0006668BC19A045E5D2002AE3D09445E1D376
:10E20000D418A445DEDB09308C07DBD1032423427C
:10E21000D8D146462642D5D1181C131C00900A1CA2
:10E220000220291CFFF75EFDCCE70E20CAE7C0469E
:10E230000C2A0020F4290020F0B5474680B41E4C7B
:10E24000051C247882B00820002C03D102B004BC45
:10E250009046F0BD00292CD0002D2AD02C68013822
:10E26000002CF3D1154C2668002EEFD06E6867891C
:10E27000B04626897743B4466668BC19A045E5D206
:10E28000002AE3D09445E1D3D418A445DEDB09305D
:10E290008C07DBD103242342D8D146462642D5D170
:10E2A000181C131C00900A1C0520291CFFF71AFDDE
:10E2B000CCE70E20CAE7C0460C2A0020F429002033
:10E2C000F0B5454657464E46E0B4264C82B0257818
:10E2D0000824002D06D1201C02B01CBC9046994693
:10E2E000A246F0BD002906D0002804D00C68002CFE
:10E2F00003D00724EFE70E24EDE71B4E3568002D11
:10E30000F7D04D683789AC4675897D43A946756855
:10E31000A8464D464544AC45EBD2002AE9D0974289
:10E32000E7D3D518AF42E4DB850701D01024D2E74C
:10E3300003273B42FAD165463D40A846F6D18946BF
:10E340006344191C151C824603F093F84B461B6866
:10E3500000951B01F5584846391C42465346A847CC
:10E36000B9E7C0460C2A0020F4290020F0B5474642
:10E3700080B41A4A82B014780822002C04D1101CF0
:10E3800002B004BC9046F0BD002824D00368013AD6
:10E39000002BF4D1124B1C68002CF0D05C681F8954
:10E3A0005B8946687B431B199E42E8D20932B3075A
:10E3B000E5D10D1C8046391C301B03F03FF80722C5
:10E3C0000029DCD100910022042041462B1CFFF7DC
:10E3D00089FC021CD3E70E22D1E7C0460C2A00209C
:10E3E000F4290020074B1A780823002A01D1181CB1
:10E3F0007047002804D0044B5B7803600023F6E7E5
:10E400000E23F4E70C2A002028290020A02210B5B2
:10E41000064BD205D15880231B041C1CA1208C4321
:10E420000B400349C0001450535010BD04050000B8
:10E430000C050000F8B54F464646041CC0B4112830
:10E4400009D012283AD013283AD014283AD00CBC5C
:10E4500090469946F8BD0025012911D000291FD00A
:10E460000229F4D16B005D19204B5D196E78002EE6
:10E47000EDD01F4B1B68002BE9D0301C9847E6E716
:10E480001A4B6F00984642467B19D65C43445B7832
:10E49000002B19D17F194744BA78164B5A55E6E735
:10E4A000154B1868FEF744FC104A6B005B19D31833
:10E4B000104A9B78565D9E42C9D1D8E70125CBE72B
:10E4C0000225C9E70325C7E70B4B18680B4B1B68F0
:10E4D0009900C9180A4B49001A1C9946FEF79AFB85
:10E4E0000028D7D14B461C70D4E7C046342A002000
:10E4F000242A00202C2A0020182A00201C2A002070
:10E50000102A002008B50378112B06D0122B12D048
:10E51000132B12D0142B12D008BD00235A00D3188D
:10E52000084AD31858780028F6D0074B1B68002BF0
:10E53000F2D09847F0E70123F0E70223EEE7113B22
:10E54000ECE7C046342A0020242A0020F8B5AC4B62
:10E550001B68DB0700D4F8BDAA4A1478172CFAD838
:10E56000A949A300CB589F46A022A84BD205D15859
:10E570008023DB031C1CA1208C430B40A449C0005A
:10E5800014505350A34B00221868A34B1B689900EA
:10E59000C918FEF73FFBDEE7A023F021DB054904A5
:10E5A0009B4A99500021043A9950D4E7A022974BF6
:10E5B000D205D1588023DB031C1CA1208C430B40C7
:10E5C0009349C00014505350924B00221868924B4C
:10E5D0001968FEF71FFBBEE7A021A120A02300269B
:10E5E000F025C9055B04C000894C0B50874B0E51C8
:10E5F000CB586D046B408025AD032B4000D1EBE080
:10E600000D5003230E5108211370824B002218680D
:10E61000814B1B685943FEF7FDFA9CE7A021A1201E
:10E62000A0230026F025C9055B04C000784C0B50E0
:10E63000764B0E51CB586D046B408025AD032B40BB
:10E6400000D1D1E00D5004230E512821DCE7A02396
:10E65000A122E021DB05D200490480249950002149
:10E660006B48A40319501C50995074E76B4D2868EF
:10E67000FEF75EFB11231C1B00D19EE0002800D09A
:10E680009BE0012C0DD0C8306421604302F050FEA5
:10E69000614B2D681B6800224343281C191CFEF7A0
:10E6A000B9FAA0238021DB05090479E7A023B02172
:10E6B000DB054904A122D20099500021544A995007
:10E6C00049E7A021A120A0230027F026C9055B046B
:10E6D000C0004F4D0B504D4B4F51CB5876047340FB
:10E6E0008026B60333406DD00E504F51022C00D11E
:10E6F0007FE02821147088E7A023A122C021DB0538
:10E70000D2004904C024995000214148E403195023
:10E710001C5099501FE7A023A122D021DB05D20075
:10E7200049048024995000213948E40319501C50B1
:10E73000995010E7A023F021DB054904BAE7A02394
:10E74000A122DB05D200A02186E7A021A120A023E1
:10E750000026F025C9055B04C0002D4C0B502B4B47
:10E760000E51CB586D046B408025AD032B4030D04B
:10E770000D500E5105231370264B00221868264BAE
:10E7800019684900FEF746FAE5E6A021A120A0237A
:10E790000026F025C9055B04C0001D4C0B501B4B27
:10E7A0000E51CB586D046B408025AD032B4018D023
:10E7B0000D500E510623137006E7A0238021DB05C0
:10E7C000090477E74E510B50022C15D00421147028
:10E7D0001BE70D510B50CDE70D510B5002210323C8
:10E7E00012E70D510B50E5E70D510B5004210423A6
:10E7F0000AE71221147008E70221147005E7C046E9
:10E80000142A0020282A00201C23020004050000EE
:10E810000C050000302A00201C2A0020202A00209D
:10E82000002303280DD8A223A022DB00D205D25852
:10E83000054B8000C0580123834093435A1E9341E7
:10E84000DBB200200B707047DC23020070B5CC4BAC
:10E85000041C1B680020DB0700D470BD172CFCD8FB
:10E86000C84AA300D3589F46A022C74BD205D1580F
:10E870008023DB031C1CA1208C430B40C349C00038
:10E8800014505350C24B00221868C24B1B689900A9
:10E89000C918FEF7BFF9E0E7A022BB4BD205D1585B
:10E8A0008023DB031C1CA1208C430B40B749C00014
:10E8B00014505350B64B00221868B64B1968FEF737
:10E8C000A9F9CAE7B44D2868FEF732FA11231C1BD8
:10E8D00000D130E1002800D02DE1012C0DD0C8304E
:10E8E0006421604302F024FDAA4B2D681B680022BE
:10E8F0004343281C191CFEF78DF9A0238021A34A4D
:10E90000DB05090499500021043A9950A5E7A0239A
:10E91000F021A122DB054904D200995000219B4A35
:10E920000020995012229D4B1A7096E7A023A12235
:10E93000E021DB05D200490480249950002193484E
:10E94000A40319501C5099501322944B00201A70A4
:10E9500083E7A023F0218D4ADB054904995000216B
:10E96000043A99508D4B00201C7076E7A022B0210C
:10E97000A123D2054904DB00D150002383490020A4
:10E980005350864A137068E7A022A121A0230026D5
:10E99000F025D2055B04C9007C4853507A4B1650D1
:10E9A000D3586D046B408025AD032B4000D1D5E0DA
:10E9B00055501650022C00D1DDE02821774B1C70F9
:10E9C000734B00221868734B1B685943FEF722F9FA
:10E9D00043E7A023F0216D4ADB054904995000214B
:10E9E000043A9950002038E7A023A122D021DB056A
:10E9F000D20049048024995000216448E40319504E
:10EA00001C5099501422654B00201A7025E7A02253
:10EA1000A121A0230025F024D2055B04C9005B4896
:10EA20005350594B1550D358640463408024A403B9
:10EA3000234000D18AE0545015500821032217E0EA
:10EA4000A022A121A0230025F024D2055B04C90047
:10EA50004E4853504C4B1550D358640463408024A7
:10EA6000A403234000D17FE05450282115500422F4
:10EA70004A4B1A70A4E7A023A122A021DB05D200F3
:10EA800049048024995000214048A40319501C5087
:10EA900099500722414B00201A70DEE6A023A122E4
:10EAA000C021DB05D2004904C02499500021374819
:10EAB000E40319501C5099501522384B00201A704D
:10EAC000CBE6A022A121A0230025F024D2055B04DF
:10EAD000C9002E4853502C4B1550D3586404634042
:10EAE0008024A403234036D05450155005222B4BCC
:10EAF0001A70274B00221868264B19684900FEF748
:10EB000089F8AAE6A022A121A0230025F024D2059D
:10EB10005B04C9001D4853501B4B1550D358640467
:10EB200063408024A403234022D054501550062271
:10EB30001A4B1A70BEE6A0238021A122DB0509042E
:10EB4000D20099500021114A995086E61450535032
:10EB5000022103228CE714505350C7E7155053503D
:10EB6000022C0AD0042129E71450535004217EE7D7
:10EB700014505350DBE7122120E702211EE7C04664
:10EB8000142A00207C230200040500000C0500006C
:10EB9000302A00201C2A0020202A0020282A0020B9
:10EBA000234B10B51960234B041C1860224B1A60CC
:10EBB000830712D50D22214B21481A700132DA70D9
:10EBC00001329A7101325A724A080421FDF77CFB26
:10EBD000002820D0E30703D41CE0C3070ED5002093
:10EBE000A023F022A1210024DB055204C9005A50C1
:10EBF00014495C500C315A5000280BD112480021A6
:10EC0000124AFDF7D3FF002804D111480121114A0F
:10EC1000FDF7CCFF10BDFDF7B1FB0028DAD10E489F
:10EC200000210E4AFDF7C2FFE307E5D5D8E7C0464D
:10EC30001C2A0020142A0020242A0020342A002024
:10EC4000EC2302000C050000302A00204DE50100F5
:10EC5000202A00200DE40100182A002005E501000B
:10EC6000031C0720032B00D97047012A13D0012968
:10EC700017D0002908D0022919D15800C3180D480F
:10EC8000C3185A700020EFE75800C3180948C3188A
:10EC90009A700020E8E700220129E8D11A1C0D3201
:10ECA000D2B258000349C3185A540020DCE70720A9
:10ECB000DAE7C046342A0020E0231D4ADB00D258A0
:10ECC0001C4B1A400023C10701D5C0239B021343EC
:10ECD000E0221749D2008B50174B9A58154B1A4017
:10ECE0000023810701D5C0239B021343E022124970
:10ECF000D2008B50114B9A580E4B1A4000234107FB
:10ED000001D5C0239B021343E0220C49D2008B5053
:10ED10000B4B9A58074B1A400023010701D5C0231B
:10ED20009B021343E0220649D20000208B5070471B
:10ED300044000050FFFFFCFF480000504C00005012
:10ED40005000005008B50320FFF7B6FF031C002059
:10ED5000002B02D0062B00D0181C08BD10B503886C
:10ED6000102B08D0112B05D1294A1368013B1360E1
:10ED7000002B07D010BD264C2368002B11D0013387
:10ED80002360F7E7002002210122FFF769FF002836
:10ED90002BD0072829D01F4B1B68002BEAD098479F
:10EDA000E8E7002000210122FFF75AFF002808D0E1
:10EDB000072806D0174B1B68002B00D09847236804
:10EDC000DDE7012002210722FFF74AFF002801D0DA
:10EDD0000728EFD1002002210422FFF741FF00287D
:10EDE000EDD00728E6D12368C9E7012002210722D8
:10EDF000FFF736FF002801D00728CCD100200021E2
:10EE00000A22FFF72DFF0028B4D00728C3D1B1E7AD
:10EE1000442A0020402A002010B5244B82B00C1E4A
:10EE2000186018D06B460020991DFFF7F9FC0028E8
:10EE300001D002B010BD6B460130D91DFFF7F0FCC8
:10EE40000028F6D16B46DB79002B29D16B469B79E4
:10EE5000002B28D12370164B1B68002B01D00020FB
:10EE6000E7E7002002210122FFF7FAFE002801D087
:10EE70000728DED1012002210722FFF7F1FE00283A
:10EE800001D00728D5D1002000210A22FFF7E8FE93
:10EE90000028E4D0C31F5A1E93415B421840C8E7C4
:10EEA00002232370D7E70B232370D4E7402A0020E6
:10EEB000442A00203CDF704748DF704775DF704709
:10EEC00076DF704786DF704787DF704788DF7047DF
:10EED00060DF704708B50378022B02D0012B00D009
:10EEE00008BD406800210022FDF760FAF8E7C0463F
:10EEF00000B597B001A8FFF775FA00282ED1019B45
:10EF0000002B04D001221D4B1A7017B000BD08223F
:10EF100002A90B7306AB029319480EAB0A718B6002
:10EF200001F0D0FD002823D1FC23164802781340BD
:10EF30000370A0230381503B4381002343608381FE
:10EF4000FFF7C0FF00280ED10120FFF77FFC00284B
:10EF5000DBD000210022FDF729FAD6E700210022AC
:10EF6000FDF724FACBE700210022FDF71FFAEBE7BB
:10EF700000210022FDF71AFAD6E7C046BC2B00207C
:10EF8000952B0020AC2B002010B5041C023CFEF792
:10EF9000D9FE012C03D8054B1A78002A00D110BDE8
:10EFA00000221A70FFF7A4FFF9E7C046BC2B00202F
:10EFB000F8B5051C01F0EEFD4348291C00F0B6FD34
:10EFC0004248291C01F040F94148291C00F0FAFA96
:10EFD000281CFFF7C3FE2B881B2B15D01D2B08D038
:10EFE000192B00D0F8BDAB79022BFBD1FFF780FFC6
:10EFF000F8E7A888A91DFFF761FF0028F2D00021DB
:10F000000022FDF7D3F9EDE7291CAE7B0F31F6089E
:10F01000E8D0E87B2F7C041C022F51D0002304E0B1
:10F02000CA185278CC5C022A11D001341B199E42B6
:10F03000F6D80022032F05D144E08B185B78885C5A
:10F04000032B33D0441C12199642F6D8CAE7023378
:10F05000013CCB18A4B26408C4D05A7819781D4E6C
:10F0600012020A43B2420DD00233002006E05A7861
:10F070001978120202330A43B24203D00130A0428F
:10F08000F5D3AFE7FFF720FF0020FFF7DFFB0028F5
:10F0900011D102221049A81D0B7893430F4A0B701F
:10F0A000FFF714FF00220E4B1A709BE70232441E3A
:10F0B0008B18A4B2CFE700210022FDF777F9E8E72B
:10F0C0000223C5E70222F2E7C42D0020282E0020EB
:10F0D000982B00200D180000AC2B002064240200A7
:10F0E000942B002038B50B78113BDBB2122B15D8CE
:10F0F0000C1C2E499B00CB58051C9F462C48002118
:10F100006222FDF755F80020FFF7A0FB002843D14D
:10F11000284C2378012B44D0013B2370002038BDBC
:10F12000002AFBD0101C00210022FDF73FF9F5E773
:10F13000214801F0D5F80028F0D0F4E70720FFF7C8
:10F1400085FB002823D164681C4B2288291C1A8067
:10F150001B48042202F08DF92188154800F0AEFC0E
:10F1600000280FD1134A13780133DBB21370002B40
:10F17000D4D1FFF7BDFED1E7114801F005FC00280E
:10F18000CCD0D0E700210022FDF710F9EAE70021FA
:10F190000022FDF70BF9D6E700210022FDF706F962
:10F1A000B6E7FFF7A5FE2378B6E7C0460C240200B9
:10F1B000C42D0020A42B0020282E0020C02D0020CC
:10F1C000A82B002008B5072820D00A2810D0042832
:10F1D00000D008BD144B13211888FFF771FE0823D7
:10F1E000021C9A43F5D000210022FDF7DFF8F0E77A
:10F1F0000020FFF72BFB002811D1FFF7A3FD00280B
:10F2000008D1FFF757FE0028E3D0ECE70122074BB7
:10F210001A70DEE700210022FDF7C8F8F1E70021AF
:10F220000022FDF7C3F8E8E7C02D0020942B002052
:10F2300010B50B78041C012B06D0022B03D1498892
:10F240000D4802F01FF910BD0C4801F09DFB00288D
:10F250000CD1201C01F044F8002803D0002100222A
:10F26000FDF7A4F8064802F00DF9ECE700210022B2
:10F27000FDF79CF8EDE7C04690240200A82B002083
:10F280006C24020010B50B78041C012B03D0002B5A
:10F2900006D0022B03D149780B4802F0F3F810BDD9
:10F2A00000F026FA002809D1201C00F0DFF9002820
:10F2B000F5D000210022FDF779F8F0E700210022C7
:10F2C000FDF774F8F0E7C046A424020008B5031C5B
:10F2D0000A1C0248191CFDF769F808BDEFBEADDE37
:10F2E0000023F0B58BB000930020052103226F4B63
:10F2F000FDF7D8FB002803D000210022FDF756F8C7
:10F3000003206B496B4AFFF74BFC002803D0002118
:10F310000022FDF74BF806AC0020211CFFF77CFD16
:10F32000002803D000210022FDF740F803AD2A1C7D
:10F330002678023E73425E415F4BF6B283CB83C2B6
:10F340000A2300226B441A805C4A281C0692012280
:10F3500062605B4A211CA26080225200E26000933E
:10F36000584A0323FDF762FE002803D00021002243
:10F37000FDF71CF8544802F085F80820534948224C
:10F38000002301F057FF002803D000210022FDF7E1
:10F390000DF80822201C0021FCF70AFF002301229F
:10F3A00063602378201C93432370FFF791FD0028AE
:10F3B00003D000210022FCF7F9FF454801F060FF6F
:10F3C000002803D000210022FCF7F0FF414801F0A3
:10F3D00061FF002803D000210022FCF7E7FF2E7018
:10F3E000FEF768FD002803D000210022FCF7DEFFB5
:10F3F000281C01F001FA002803D000210022FCF7AC
:10F40000D5FF1D20002105226844FCF7D1FE324BB8
:10F410000121069302230222E320237163790B4327
:10F42000DBB2134303400C200343CF20034063713E
:10F430000723A3710933E371237A284819430A4348
:10F44000211C227201F072FA002803D00021002250
:10F45000FCF7ACFF00F0F4FA002803D000210022F2
:10F46000FCF7A4FF1E4B1F48211C069300F0CAFEA8
:10F47000002803D000210022FCF798FF1A4B1B48FC
:10F48000211C069300F07CF8002803D00021002204
:10F49000FCF78CFFFFF72CFDFFF70EFD0028FBD0DB
:10F4A00000210022FCF782FFF6E7C046C02B0020B7
:10F4B000CD0C0000C5F1010058240200902B002063
:10F4C000902A0020D5EE0100B8240200482A00202E
:10F4D000B1EF010089EF0100E5F00100952B00205C
:10F4E00031F20100282E002085F20100982B002027
:10F4F00095DF704797DF704710B5037882B0002B17
:10F5000005D143681B4A1B021B0A934201D002B07B
:10F5100010BD194B1A6843881380037A002B0DD055
:10F52000164944898C4223D0012B07D9C48A8C42C6
:10F530001CD0022B02D0438C8B4206D0002301A9A1
:10F540000B70101C93689847E1E702235900CB1811
:10F550009B00C318998A083351805B8901A9938065
:10F560000023101C0B7093689847D0E70123EDE748
:10F570000023EBE70F180100DC2E0020192A000001
:10F5800000B5031C83B00E20002B13D0002911D02E
:10F59000012201A88270084A0280084A13600122F1
:10F5A00052421A8000225A809A800A6804499A605E
:10F5B00000F05AFA03B000BD0F180000DC2E002046
:10F5C000F9F4010030B583B000280DD000290BD02C
:10F5D0000B88352B0FD009D9372B18D0382B03D1F6
:10F5E0008A8983889A4231D003B030BD102BFBD179
:10F5F0008B880380F8E78A8983889A4207D10222A0
:10F6000001AB1A708A7C191C5A7082689047144D9D
:10F61000144B2C681B689C42E6D0A300124A1B19AD
:10F620009B00D118887800280AD0985A0831FFF733
:10F6300061FF0028D8D1072301341C402C60D3E798
:10F64000985A89880022FFF753FFF2E7012201ABA5
:10F650001A708A7C191C5A7082689047C4E7C046A9
:10F66000382E0020342E00203C2E0020F8B5031C3C
:10F670000E20002B2FD01B4A5C881D88136807388A
:10F68000591C014011609A001748D2189200831843
:10F690005C810224DC811C1D1C6100240027855232
:10F6A000124D9C8101341C721C719C702C685F711E
:10F6B0008C4211D0A3001B199B00C1188A78185ADC
:10F6C000002A0BD18988FFF713FF002804D10723F4
:10F6D00001341C402C60F8BD0020FCE70831FFF726
:10F6E00009FFF2E7342E00203C2E0020382E0020A7
:10F6F00070B507241549164E0B68164D5A1C22404A
:10F700000A609900CB1884889B00F1188C800088CF
:10F710002C68F05200238B70A24210D0A3001B195A
:10F720009B00F1188A78985B002A0AD00831FFF70D
:10F73000E1FE002803D1072301341C402C60002087
:10F7400070BD8988FFF7D4FEF3E7C046342E002051
:10F750003C2E0020382E002090DF704792DF70474B
:10F7600093DF7047F0B556464D465F4644466023EA
:10F77000F0B4364EC35C356883B09C46002D0DD086
:10F7800062462E235343324AC3189C789778A74287
:10F790000BD0012D02D9977AA7420DD003B03CBC03
:10F7A00090469946A246AB46F0BD1788B8461F88DA
:10F7B000B845EED1002304E014891B889C42EDD1AA
:10F7C0000123DB00D21853689A46002BE6D0214B68
:10F7D0001C689846012CE1D85C230190C35AE700CD
:10F7E0009B461D4B584699464A463B1BDB00D218A8
:10F7F0005080002926D000214846195463462E31F6
:10F800004B4301990432101CC9182E2201F031FE1D
:10F810003F1BFF003B1C52464B445A634346013496
:10F820001C60AC42BAD14846436B98473368012B01
:10F8300004D948464B463830DB6E98470023424691
:10F840001360ABE7022249465A54E1E76C2F0020CF
:10F85000582F0020542F0020E42E0020F0B54546FC
:10F860004E465746602388462E21E0B4C55C013BD6
:10F870004D4346193179C25C8C4653009B189B005E
:10F880005B19C318511C82B0063361453CD06146F8
:10F890004F1E5F218A4662452ED297421DD001320B
:10F8A0001C8953009B189B005B19C318998901346C
:10F8B00089468C421AD04B4601A9013B0C804B80F3
:10F8C000434600221A705C23C05AFFF749FF02B07A
:10F8D0001CBC90469946A246F0BD1B89B28D93424E
:10F8E0000FD001A901330B804A80E9E70633514666
:10F8F000D2B242549445D0D801234246002013701E
:10F90000E5E700237A1CF2E71B89B28D9342E8D128
:10F91000F2E7C046F8B556464D465F464446F0B459
:10F92000424A434E1368356801331360AB4208D333
:10F9300000226123C2543CBC90469946A246AB4685
:10F94000F8BD00239A4652465F33C2540133C15C6E
:10F9500099460131C9B2C154323B1F1C9846354B00
:10F960004F439B46C719C900041C59440422381C44
:10F9700001F07FFD53463B715C230121E05A3A1CA4
:10F98000FFF7EAFE0028D6D061235246E2544B46E8
:10F9900042465946E35C89785A43A3189A789142C3
:10F9A0003CD0012DC7D05946897A9142C3D15A46DD
:10F9B0001B8812899A42BED10123DB005B445B683D
:10F9C0009C46002BB7D01C4F3B68012BB3D85C2260
:10F9D000A25A9046194A44469146CA46DA00D21ABB
:10F9E000D200924451464C80494601248C545246E0
:10F9F00051465060624601334A633B609D429AD152
:10FA00004846436B98473368012B04D948464B4618
:10FA10003830DB6E984700233B608CE759460F88EF
:10FA200019888F42BDD10023C7E7C046E02E0020D1
:10FA30006C2F0020582F0020542F0020E42E00208F
:10FA400000230121044A00201360044A1170044A73
:10FA50001360044A136070476C2F0020682F002049
:10FA6000E02E0020542F0020F8B5002808D00029EF
:10FA700006D00F4B1A780823002A03D1181CF8BDB2
:10FA80000E23FBE70B4E023B3568022DF6D0023BFE
:10FA9000012DF3D80C1C084FEB00FF18011C0422A9
:10FAA000381C013501F0E5FC7C6035600023E5E79A
:10FAB000682F00206C2F0020582F002070B5041CE8
:10FAC0000D1C002825D0144B08201B78002B00D1DA
:10FAD00070BD124B1B68002BFAD06126A35D093064
:10FAE000002BF5D10E4A201C13600E4A13606022D1
:10FAF000A3545C33E1525C3A0B4901F0BAFC281C78
:10FB00000121221CFFF728FE0028E1D10123A35583
:10FB1000DEE70E20DCE7C046682F00206C2F0020B7
:10FB2000E02E0020542F0020582F0020F0B55F4613
:10FB300056464D464446F0B483B0002800D187E0D5
:10FB4000002900D184E0654B1B78002B00D17FE0B9
:10FB50000B88103B9BB2232B00D979E0604A9B00B5
:10FB6000D3580D1C041C9F46CB88002B00D0A5E168
:10FB70006033C65C323B7343C7180E310422381C15
:10FB8000984601F076FC381C291C28232A301231B3
:10FB90000422994601F06DFC5F23E35CB944002B1D
:10FBA00000D0ECE14B465B882E277E4301A90B80F9
:10FBB000A619B38D4B805C23E05AFFF7CFFD0028D8
:10FBC00046D000226123474DE2542A68013BE35CA2
:10FBD000002A3DD05F43444EE719BB78B178994283
:10FBE00000D19EE2012A33D9B17A994230D13189CC
:10FBF0003B8899422CD10123DB00F61873689946A3
:10FC0000002B25D0394B98461B68012B20D85C214E
:10FC1000615A374C8C466746D900C91AC900661824
:10FC2000778001276754494671634146013370600C
:10FC30000B609A420CD1636B201C98472B68012BF8
:10FC400003D9201CE36E38309847002342461360E6
:10FC500003B03CBC90469946A246AB46F0BD60233B
:10FC6000C35C9C465F23C75CCB88002B14D18E8974
:10FC7000002E11D01F480B8A834200D16FE10A1C6D
:10FC80000023163205E00632911F0988814200D117
:10FC900066E10133B342F6D36B46002566461D711B
:10FCA0002E235E43A6199846337901379F4200D12F
:10FCB0004EE15F23201CE75401A9FFF7CFFD002888
:10FCC00000D00EE26B461B79002BC1D0201C012115
:10FCD000FFF748FD201CFFF71DFEB9E7682F002045
:10FCE000D82402006C2F0020582F0020542F002011
:10FCF000E42E0020022900006023C75CCB88002B83
:10FD000000D0FCE02E337B439A46824453460A7B64
:10FD10001E79B218032A00DD1EE1D2B2131C51462F
:10FD20000A71B34242D92E227A43904673009B193E
:10FD30009B0043449946A1444B46291C981D0A2226
:10FD40000E3101F096FB00224B4693461A82524632
:10FD50001279731C9A4200D81CE15A00D3189B00F8
:10FD600043449946A1444B46291C981D0A22183148
:10FD700001F07FFB4B465A461A8252461279B31C59
:10FD8000934200D306E15A00D3189B00434498469F
:10FD9000A0444346291C981D0A22223101F069FB28
:10FDA00043465A461A8253461A7903362E21013E9B
:10FDB000794373009B199E00601873182830E3186C
:10FDC0008588DB899D4200D899E0032A00D196E01E
:10FDD0005F23E254002A00D090E143882E26774327
:10FDE00001A90B80E719BB8D4B805C23E05AFFF71C
:10FDF000B5FC002800D12BE700226123D04DE2544E
:10FE00002A68013BE35C002A00D121E75E43A31985
:10FE1000CC4E9978B7788F4200D1A3E1012A00D85F
:10FE200016E7B77A8F4200D012E731891B889942D2
:10FE300000D00DE70123DB00F61873689A46002B0B
:10FE400000D105E7C04B98461B68012B00D9FFE69F
:10FE50005C21615ABD4C894638214E468B46594338
:10FE60008C4661184E8001264860B1465046664671
:10FE70004F46486341464B44A7550B60934200D020
:10FE8000E6E600235E462A685F1C934200D3DCE668
:10FE9000331C7B431A1F383BE018A35898473B1C80
:10FEA000F1E762220021FCF783F901225C23524230
:10FEB000E252CDE65C238A88C252C9E66023A04D97
:10FEC000C25C2F68002F00D133E1323B53439D4E7B
:10FED000C3189A78B178914200D1FBE0012F00D885
:10FEE0002CE1B17A914200D1B7E0994A136801330D
:10FEF0001360BB4250D300226123E254A8E60025E0
:10FF00005F23201CE55401A9FFF7A8FC002800D1BD
:10FF1000D8E66123E5548A4D013B2A68E15C002A5A
:10FF200000D195E6323B4B43864EE3189978B7787B
:10FF30008F4200D1EDE0012A00D889E6B77A8F42DE
:10FF400000D085E631891B88994200D080E652E6D0
:10FF500001236A461371B9E603230322DFE6002377
:10FF60005900CB185B00E9187B00DB199A0060464A
:10FF70002E234343C989D318E31819828CE6013B29
:10FF8000DBB25A00D3189B004344E318DB890133EA
:10FF90009BB209E61E1C09E700239B465A465F33C5
:10FFA000E2540133E15C9A460131C9B2E154323B7B
:10FFB00099464B439846C900A04471180422404614
:10FFC00001F057FA43465A461A715C230121E05A60
:10FFD0004246FFF7C1FB002800D139E661235A46AB
:10FFE000E25453464A46E35CB1785A43A3189A78E0
:10FFF000914200D1AEE0012F00D129E6B17A9142C1
:020000022000DC
:1000000000D025E632891B889A4200D020E60123E1
:10001000DB00F61873689A46002B00D118E64A4BAD
:1000200098461B68012B00D912E65C22A25A474C65
:100030009446DA00D21AD200A118914662464E4682
:100040004A800122A25552464A6342460133486023
:100050001360BB4200D0FBE5EDE532891B889A4274
:1000600000D042E70123DB00F3185B689B46002BBE
:1000700000D13AE7344B98461B68012B00D934E78E
:100080005C22A25A9446314A60469146CA46DA003A
:10009000D21AD200924451464880022084464846F3
:1000A00061468154524659465163424601331360BA
:1000B000BB4200D019E7436B98472F68012F05D941
:1000C00048464B463830DB6E98472F68002342463F
:1000D00013600AE730881988884200D0FEE60023C2
:1000E000C1E76123E554164D013B2A68E35C002A11
:1000F00000D1ADE5414659430B1C15E7013AD2B298
:1001000053009A18920051186118CB8901339BB2A1
:1001100064E63788BC461F88BC4500D00BE7002347
:100120006AE531888C4639888C4500D05AE5002331
:1001300062E5074A136801331360DCE60127D4E661
:100140006C2F0020582F0020542F0020E42E002078
:10015000E02E002031888C4619888C4500D04AE773
:10016000002355E73788BC461F88BC4500D055E6BC
:10017000002360E695DF704797DF704710B503787E
:1001800082B0002B05D143681B4A1B021B0A934215
:1001900001D002B010BD194B1A6843881380037A4E
:1001A000002B0DD0164944898C4223D0012B07D057
:1001B000C48A8C421CD0022B02D0438C8B4206D0C6
:1001C000012301A90B70101C93689847E1E70223F3
:1001D0005900CB189B00C318998A083351805B895A
:1001E00001A993800123101C0B7093689847D0E7F6
:1001F0000123EDE70023EBE70D1801001830002084
:10020000372A000000B5031C83B00E20002B12D04B
:10021000002910D0012201A88270084A0280084AF1
:1002200013600A6807499A60012252421A8000222C
:100230005A80FFF719FC03B000BDC0460D1800003E
:10024000183000207D01020030B583B0002808D0AE
:10025000002906D00B88372B1BD0382B03D0102B4E
:1002600014D003B030BD8A8983889A42F9D1022222
:1002700001AB1A708A7CD2072AD50A7DC97C12028A
:100280000A435A80191C82689047EAE78B880380EA
:10029000E7E7104D104B2C681B689C42E1D0A3008F
:1002A0000E4A1B199B00D118887800280BD1985A48
:1002B00089880022FFF75EFF0028D2D1072301348E
:1002C0001C402C60CDE7985A0831FFF755FFF3E743
:1002D000CA7CD6E7742F0020702F0020782F0020D2
:1002E000F8B5031C0E20002B2FD01B4A5C881D88FC
:1002F00013680738591C014011609A001748D2183A
:10030000920083185C810224DC811C1D1C61002486
:1003100000278552124D9C8101341C721C719C7007
:100320002C685F718C4211D0A3001B199B00C1186F
:100330008A78185A002A0BD18988FFF71BFF0028FA
:1003400004D1072301341C402C60F8BD0020FCE7D9
:100350000831FFF711FFF2E7702F0020782F0020FF
:10036000742F00207EDF70477FDF704781DF70478A
:10037000A9DF7047AADF7047002070470020704750
:100380000020704700207047002070470020704711
:10039000F8B54378114D5800C11889004A59002A10
:1003A00008D00F4C6618B67A77B2002F10DB002207
:1003B000002102E000220021094CC3189B00E31831
:1003C00018890323FFF7D4FF002800D00548F8BDA3
:1003D0007606ECD46918043192B2EEE714310020AD
:1003E0003C3000204180000000207047F0B585B00F
:1003F00006236A46D3804B78274D5A00D3189B00BA
:10040000EB18061C18896B460C1C9A1D02A90323C5
:10041000FFF7B0FF002802D0002005B0F0BD6378E0
:100420001E4F5800C0186B4680003818DA88043018
:1004300002A901F00FF8637800281ED05900CA18ED
:100440009200D259002A25D1154D6A46CB18D28880
:100450009B00FA50637802A95800C0188000381831
:10046000043001F006F86378301C5900C9188B007D
:10047000F9180C223423A847CEE75800C3189B0074
:10048000ED18AA7A9207C7D4F81800210C22FBF7BE
:100490008FFEC1E7034DD8E73C3000201431002027
:1004A000B1E1010039E20100021C38B54B780B4C78
:1004B0005800C01883000D1CE018111C34230C22B6
:1004C000FDF7FEFE002806D16B785A00D3189B007A
:1004D0001A59013200D038BD1851FCE71431002000
:1004E000F0B557464E464546E0B44C4F90B03C6898
:1004F000002C49D0189C5C2C46D81E1C484B9246B8
:1005000001936A460023089488468146137409962D
:100510000024444D02E00134072C11D0A1B2281C64
:1005200002AAFDF71DFE0028F5D1484602A90822BF
:1005300000F090FF0028EED1E4B201ADAC7003E012
:1005400001ADAC78FF2C1FD04346042B2DD0364B89
:10055000F31AA72B1ED9354BF31A1B2B30D80023C7
:100560006B700AAB09931823089308334246032A99
:100570004FD0022213436A46137407AB0593281C1D
:100580003B6804A95246984710B01CBC9046994657
:10059000A246F0BD53462649002B0BD00B68012222
:1005A000A24093430B602023E0E7189B5C2B2ED0E6
:1005B0004323E0E70122A2400B681342E4D0EEE7B8
:1005C0001C48331A0B2B0FD91B4B9E42F0D01B4BF0
:1005D000A200D3589E42D7D1194BDA7A4023A242C7
:1005E000C4D100226A70C1E730236A461374002325
:1005F0006B700133EB70124B9A7A30239207B5D4AB
:1006000000210C22FBF7D4FD6B461B7CAEE72323B5
:10061000B1E7012213436A461374AEE72431002088
:1006200000FFFFFFF030002048300020F8300020AD
:100630002031002014310020982502001C300020B9
:100640003C300020021C38B54B780B4C5800C018C9
:1006500083000D1CE018111C34230C22FDF730FE22
:10066000002806D16B785A00D3189B001A59013222
:1006700000D038BD1851FCE714310020F8B543789C
:10068000114D5800C11889004A59002A08D00F4C52
:100690006618B67A77B2002F10DB0022002102E044
:1006A00000220021094CC3189B00E318188903237A
:1006B000FFF75EFE002800D00548F8BD7606ECD4B2
:1006C0006918043192B2EEE7143100203C3000206A
:1006D00041800000F0B585B006236A46D3804B7890
:1006E000274D5A00D3189B00EB18061C18896B463F
:1006F0000C1C9A1D02A90323FFF73CFE002802D020
:10070000002005B0F0BD63781E4F5800C0186B463E
:1007100080003818DA88043002A900F09BFE637864
:1007200000281ED05900CA189200D259002A25D19B
:10073000154D6A46CB18D2889B00FA50637802A9FF
:100740005800C01880003818043000F092FE63781A
:10075000301C5900C9188B00F9180C223423A84703
:10076000CEE75800C3189B00ED18AA7A9207C7D4A9
:10077000F81800210C22FBF71BFDC1E7034DD8E759
:100780003C30002014310020B1E1010039E20100C9
:1007900070B5041C4378164D5A00D3189B00EB1813
:1007A00018892378134E5900C9188900711804312B
:1007B000FFF7D8FD00281AD123785A00D3189B00E0
:1007C000F6180123727A1343737263785A00D318B0
:1007D00004229B00EB18997A0A439A7263785A00B4
:1007E000D31820229B00ED18AB7A9343AB7270BDF7
:1007F0003C30002024310020F0B55F4656464D467F
:100800004446F0B485B000286AD000223D4B8346B0
:100810001A605A729A7201233B4800218372023B8C
:100820000381C3720732FBF7C3FC384800210C2256
:10083000FBF7BEFC364B00259A461C1C354BFF26A9
:10084000994601239846344F201C0021062211307E
:10085000FBF7AEFC201C00211022FBF7A9FC43464D
:10086000AB403A6849469A433A600022AB000135F2
:100870002674E675CA501834072DE5D15C236A4604
:10088000264E9380264B6846311CD5800093FDF799
:10089000CDFB00281DD10123224F3B705B461B7806
:1008A000002B1FD10025A9B2301C02AAFDF758FC6D
:1008B000041E21D1504602A918220023FDF700FD95
:1008C00000281CD118239C460135E244072DEAD1AB
:1008D000002005B03CBC90469946A246AB46F0BD10
:1008E0001148F6E76B466A46DB889188301C59430D
:1008F00089B2FDF73BFDECE700233B70E9E73C7074
:10090000E7E7C046243100203C30002014310020AD
:10091000483000201C30002020310020F030002022
:10092000E1040200383000200E800000F8B5114BC1
:100930001B78002B01D11048F8BD00280AD00029EF
:1009400008D00B68002B05D00C4E3768002F03D061
:100950000B48F1E70B48EFE7051C301C0C1C08C0E6
:100960000531052200F085FD23790020B3722F7038
:10097000E2E7C04638300020088000002431002023
:10098000048000000E800000F8B5454B1B78002B5A
:1009900001D14448F8BD00280BD00378002BF8D1D2
:1009A000414B1A68002AF4D04278002A03D03F480D
:1009B000F0E73F48EEE73F4A917A0129F7D08907EF
:1009C000E7D58178FF2908D0D17A817010893A4A19
:1009D000111C1231FFF7CAFCDCE7D17AFF29F4D1F0
:1009E000364CE17DFF2919D02F21615CFF2954D0BD
:1009F0004721615CFF294ED05F21615CFF2948D00F
:100A00007721615CFF2942D08F21615CFF293CD0B6
:100A1000A721615CFF2936D02948BBE70021157862
:100A2000022D2ED018254D4365192E1C17682F61F5
:100A30009588B5829579B575FD2618254D436419BD
:100A4000E6750C244578C9B265435519E972817081
:100A5000017861435918497AC9070FD52025417893
:100A600061435218917A2943917202210278002041
:100A700054431B195A7A0A435A728BE7FFF788FED0
:100A800088E7FE26D9E7F939C9E70521C7E7042138
:100A9000C5E70321C3E70221C1E70121BFE7C04643
:100AA0003830002008800000243100201080000031
:100AB0000E8000003C300020F8300020483000203C
:100AC00043800000F0B557464E464546E0B42B4BF8
:100AD0001B78002B05D12A481CBC90469946A2469B
:100AE000F0BD002842D0002940D00B68002B3DD03B
:100AF0008B68002B3AD00378002BECD1214B1B687C
:100B0000002BE8D0002081460230824601381E4A80
:100B1000002300241D4D844620E0087B844207D238
:100B20006746D07D074203D18F68A000C2510134CF
:100B3000087981450ED25646D07D06420AD110274B
:100B4000B8464846904446460F688000C65101208A
:100B50008046C14401331832072B09D0E87A984205
:100B6000DBD15646A87A0642D7D0F3E70848B3E768
:100B70004B460C730B710020AEE7C04638300020A6
:100B80000880000024310020483000203C30002044
:100B90000E800000F0B557464E464546E0B4C54BC2
:100BA0008CB01B78002B30D0C34E3468002C2CD076
:100BB000FF2302AA53709370D37003AD031D6B60C3
:100BC0002A2300222B8102AB1A700388102B00D13C
:100BD00039E1FF218288B94F9246BA7A8846914618
:100BE000910707D5B6498A4500D1BAE139895145FF
:100BF00000D1B6E1172B42D00DD91C2B00D115E145
:100C0000522B00D10BE1182B24D00CB01CBC904609
:100C10009946A246F0BD112B00D1CBE0132BF4D1A5
:100C20000022A84B09920A920B920693FB7A0021AC
:100C30005800C318A448DB00C3180793504606ABFE
:100C40000892FFF791FB0028DFD10423BA7A1343FF
:100C5000BB72DAE78379112B00D16DE180234A461C
:100C60005B421A439533BA722B70B37A974A9B0052
:100C70009B5802A89847002334689846DAE001217F
:100C8000737A4A468B43737214238C4603318A432A
:100C9000BA722B708379002B00D049E1C3791942D5
:100CA00000D17AE14346FF2B00D176E108231A43B5
:100CB000BA72837A9B0709D5434661465B00824A34
:100CC0004344DB00D318DA7D8A43DA75FB7AFF2BC5
:100CD00000D162E13B78022B10D043465B007A4A98
:100CE0004344DB00D3181A1C396819610221BB8800
:100CF0009382BB799375D37D8B43D3756A46434604
:100D000006ACD380D1887248221CFDF729FA00284E
:100D100038D102AB5B785A00D3189B00FB189B7A42
:100D20005B0600D5A0E16B4B984602AB9B78201C7C
:100D30005900CB186449DB00C91818220023C047AA
:100D4000002812D102AB597840304B005B189B0051
:100D5000FB189A7A82439A72CB00591A8B00594930
:100D6000201CC9181C221823C04702AB1B78201C6A
:100D70005A00D3189B00F3189B7A574A9B009B5844
:100D800002A99847012300229846346802A8291C2A
:100D9000A0472B78122B35D1BB7A012B2ED0012303
:100DA000BB72023B3B81FB72381C00210722FBF720
:100DB000FFF923E00223494608244A4699430B1CC5
:100DC000B972144000D189E04AB2002A00DA06E183
:100DD000002290465B0705D5737A01329343737204
:100DE000012398461023BB7202332B7002A833688C
:100DF000291C002298472B78122BCDD04346002B7C
:100E000000D102E70222737A1A4200D1FDE62024C3
:100E1000B97A0C4200D0AFE093437372F5E6B37A2F
:100E20002A4A9B009B5802A89847EEE613232B7092
:100E30000023984602A8291C0022A0472B78122BD9
:100E400000D0E2E6A8E71D4FBB7ADB0700D4DCE662
:100E50000223BB720F332B7002AB5A7083880722B8
:100E60003B81831D191C381C994600F002FB10229F
:100E700090460024144B984440464946072200F00F
:100E8000E9FA002800D18CE018239C460134E044A4
:100E9000072CF1D1336802A8291C002298472B782F
:100EA000122B00D0B1E600239846BB7A012B00D06C
:100EB00075E7AAE638300020243100203C300020BD
:100EC000FFFF0000F8300020483000208825020095
:100ED000F0300020B1E10100682502004246FF2AFF
:100EE00000D175E7634B00219A4653004344DB0071
:100EF0009946504648440622D1441130FBF758F930
:100F0000002110224846FBF753F9FF234A4640468A
:100F10001374D375012282405749086890434246B2
:100F200008609100554A8C5002AA9370BB7A4FE733
:100F30001A1C0123984629E74B461B0700D48DE66F
:100F40004F48062204300021FBF732F916232B709C
:100F50006023BA7A1343BB720223727A134373720B
:100F600010E7F97A8846424602A98A700022944620
:100F70000A1C614651703DE63889311DFFF7F2F9D0
:100F8000002800D041E60123727A134304227372D1
:100F9000BB7AA3431343BB7237E601230022984672
:100FA000F4E60823B97AE2B20B43BB7202ABFA72E1
:100FB0009A70A1B2334806AAFDF7D2F8002800D0F3
:100FC00059E606A91C2218232F48FDF779F9B37AB0
:100FD0002E4A9B009B5806A802A998474BE66A46F2
:100FE000434606ACD380D1882648221CFDF7B8F8CA
:100FF00000289BD102AB5B785A00D3189B00FB18EA
:101000009B7A5B0633D4224B984602AB9B78201C1C
:101010005900CB181749DB00C91818220023C04714
:10102000002812D102AB597840304B005B189B006E
:10103000FB189A7A82439A72CB00591A8B00124994
:10104000201CC9181C221823C04702AB1B78201C87
:101050005A00D3189B00F3189B7A0E4A9B009B58AA
:1010600002A99847BB7AB3E60B4B98465DE60A4B5C
:101070009846CAE748300020203100201C3000206C
:1010800014310020F0300020F830002078250200D4
:10109000790302006825020039E201001F4B1B782A
:1010A000012B00D070471E4B1B681B07FAD1F022A2
:1010B0001C4B1B68134018D11B4B1B6813421AD0E2
:1010C000174B1B681B07EDD1F022164B1B68134012
:1010D000402BE7D1144B1B681342E3D1C12380227C
:1010E0000121DB00D205D150DCE7102B0FD10E4BD4
:1010F0001B681342E8D10D4A0D4B1A6080220D4B3C
:1011000012021A60054B1B78012BD9D0CAE7302B8D
:10111000DAD1054B1B681342D6D1ECE7E00F00F0A3
:10112000E40F00F0E80F00F0EC0F00F0DFFF07C065
:1011300004050040186C00402EDF704751DF7047F7
:1011400010DF704761DF704708B5081C111CFEF7FF
:10115000BDF808BDF0B557464E464546E0B4314BA4
:10116000314E1D6899466B425D41304BB2461C685A
:10117000984663425C412E4F82B0EDB2E4B2002D3E
:1011800008D0002C27D002B01CBC90469946A2463D
:10119000F0BD012401A8FFF7D1FF052831D00028B8
:1011A0002AD000210022FBF701F9002CF1D16A4678
:1011B0001D4B01A91B8893801D4B1C68201CFFF749
:1011C000C1FF0528E5D0002810D000210022FBF740
:1011D000EDF80024D3E73C68338801A9201C0B807C
:1011E000FFF7B0FF0528CED00028EED14346201CE3
:1011F0001B6898470024C2E74B4601981B68984734
:10120000D3E7002CBFD153466A461B8801A99380BF
:10121000074B01251C68201CFFF794FF0528D2D13D
:10122000B1E7C04638310020323100203C31002087
:101230003431002038B5041C0720002901D08D0767
:1012400000D038BD094801600949201C0A80094ABC
:1012500009491360FFF774FF0028F2D10122074B00
:1012600016301A70FFF768FFEBE7C04634310020F4
:10127000323100204031002049110200303100207D
:10128000002803D0024B1860002070470E20FCE7B6
:101290003C310020002803D0024B1860002070472A
:1012A0000E20FCE73831002008B50A4B1B68002BE4
:1012B00008D09847002800D108BD00210022FBF784
:1012C00075F8F9E7044B1B78002BF5D0FFF742FFC8
:1012D000F2E7C046403100203031002003210A48A7
:1012E00002680A430260094802680A43026008492A
:1012F000084A094B9B1A03DD043BC858D050FBDC5D
:101300000648804706480047240500405405004031
:101310003826020000280020682800209D100200C6
:10132000C1C00100FEE7FEE7FEE7FEE7FEE7FEE7DD
:10133000002243088B4274D303098B425FD3030A14
:101340008B4244D3030B8B4228D3030C8B420DD327
:10135000FF22090212BA030C8B4202D312120902B5
:1013600065D0030B8B4219D300E0090AC30B8B42F3
:1013700001D3CB03C01A5241830B8B4201D38B03A1
:10138000C01A5241430B8B4201D34B03C01A524146
:10139000030B8B4201D30B03C01A5241C30A8B4289
:1013A00001D3CB02C01A5241830A8B4201D38B0274
:1013B000C01A5241430A8B4201D34B02C01A524118
:1013C000030A8B4201D30B02C01A5241CDD2C3098A
:1013D0008B4201D3CB01C01A524183098B4201D306
:1013E0008B01C01A524143098B4201D34B01C01AF1
:1013F000524103098B4201D30B01C01A5241C30869
:101400008B4201D3CB00C01A524183088B4201D3D7
:101410008B00C01A524143088B4201D34B00C01AC3
:101420005241411A00D20146524110467047FFE72F
:1014300001B5002000F00CF802BDC0460029F7D02D
:1014400003B5FFF775FF0EBC4243891A1847C04623
:101450007047C04630B50024944208D0035D651C37
:101460000C5DA34201D0181B02E02C1CF4E7002005
:1014700030BD002310B5934203D0CC5CC45401337B
:10148000F9E710BD0FB40B4B13B51C68002C05D049
:10149000A369002B02D1201C00F050F805AB201CE2
:1014A000A168049A019300F05BF916BC08BC04B073
:1014B0001847C0466028002008B5024900F0AEF881
:1014C00008BDC04641200200002310B5041C036083
:1014D0004360836081814366C281036143618361AC
:1014E000191C08225C30FAF763FE054B2462636224
:1014F000044BA362044BE362044B236310BDC0465C
:10150000B11C0200D91C0200111D02003D1D020089
:1015100070B568254B1E5D430E1C291C743100F00C
:101520009FF8041E08D000212A1C016046600C3080
:10153000A0606832FAF73CFE201C70BD836913B5C9
:10154000002B28D18364C3640365134B134A1B68C3
:1015500082620193984201D101238361041C00F04F
:101560001FF86060201C00F01BF8A060201C00F039
:1015700017F80421E06000226068FFF7A5FFA0686B
:1015800009210122FFF7A0FFE06812210222FFF7E4
:101590009BFF0123A36113BDFC220200B9140200CA
:1015A000F8B51D4B061C1D68AB69002B02D1281C29
:1015B000FFF7C4FF4835AC686B68013B05D40C22CB
:1015C000A75E002F10D06834F7E72B68002B06D1F8
:1015D000301C0421FFF79CFF2860002801D02D68F3
:1015E000E9E70C23336016E00123201C5B42E38112
:1015F0000233A38167662760A76067602761676120
:10160000A7615C30391C0822FAF7D2FD201C676301
:10161000A763A764E764F8BDFC220200F7B5041CC9
:10162000071C002601914834002C16D06368A56879
:101630000093009B013B00930DD4AB89012B08D98B
:101640000E22AB5E013304D0381C291C019B984745
:1016500006436835EDE72468E6E7301CFEBD000070
:10166000032370B5CC1C9C430834051C0C2C01D200
:101670000C2405E0002C03DA0C2300202B6042E050
:101680008C42F9D3204A1368101C191C002913D06E
:101690000A68121B0DD40B2A02D90A608B181FE0AE
:1016A0008B4202D15A6802601BE04A685A600B1CE8
:1016B00017E00B1C4968E9E7144E3368002B03D18F
:1016C000281C00F0E3FA3060281C211C00F0DEFA30
:1016D000031C421CD0D00322C61C964386420AD16A
:1016E0001C60181C07210B301A1D8843821A0AD06F
:1016F0005142995007E0311A281C00F0C7FA431CE8
:10170000BAD0331CECE770BD4831002044310020D2
:10171000936810B5013B9360002B05DA9469A342EE
:1017200008DBCBB20A2B05D01368581C1060197067
:10173000C8B201E000F008FB10BDF8B5061C0F1C94
:10174000141CD518AC4208D02178301C3A1CFFF785
:10175000DFFF0134431CF5D100E00020F8BD00009C
:10176000F0B59FB0061C0F1C02920593002804D010
:101770008369002B01D1FFF7E1FE794B9F4201D134
:10178000776808E0774B9F4201D1B76803E0764B5A
:101790009F4200D1F768BB891B070AD53B69002B24
:1017A00007D0002306AD6B6120336B761033AB7628
:1017B0003DE0301C391C00F033FB0028F1D0012043
:1017C0004042CAE0059A111D12680591002A7EDB8D
:1017D0000992013423782E2B00D189E021786348C7
:1017E000032200F0C5FC002808D0604B0134C01A69
:1017F00040238340181C2B68184328602178631C01
:101800005B4806220293297600F0B2FC002800D142
:1018100091E0584B002B00D084E00722059B073352
:101820009343083305936B69039A9B186B61029C81
:101830002378002B04D1029BE31A049311D003E018
:10184000252BF8D00134F3E7049B301C391C029A95
:10185000FFF773FF431C7BD06A69049B9446634483
:101860006B612378002B73D00122002352426A60FF
:1018700002A95432521801342B60EB60AB60137034
:10188000AB6521783C48052200F072FC002809D0A5
:10189000394B0134C01A01238340181C2B681843AC
:1018A0002860EEE72B68DA0604D55322202102A82F
:1018B000121811701A0704D553222B2102A81218EE
:1018C000117022782A2A00D17CE7099B05E0524258
:1018D000EA60022213432B607BE72278303A092A20
:1018E00004D80A214B4301349B18F6E7099371E7AA
:1018F00063782A2B09D1059B02341A1D1B680592B7
:10190000002B0DDA01235B420AE000230134227828
:10191000303A092A04D80A214B4301349B18F6E7D0
:1019200007935BE705AB0093301C291C3A1C134B53
:1019300000E000BF07E005AB0093301C291C3A1CF7
:101940000E4B00F08BF80390039B013300D06AE745
:10195000BB895B0600D532E70B981FB0F0BDC046CF
:101960009C250200BC250200DC25020002260200A4
:101970000626020000000000FC2502003B170200C2
:10198000F7B5171C01930A698B6800900C1C9342F1
:1019900000DA131C221C3B6043321278002A01D06B
:1019A00001333B6023689B0602D53B6802333B60F2
:1019B000062523681D401ED0231C43331B785A1E66
:1019C0009341226892061CD53020E1184031C8703E
:1019D000211C5A1C45310978A21840320233D170BB
:1019E0000FE0221C0123009801991932089EB0478C
:1019F000431C0ED00135E3683A689B1A9D42F0DB28
:101A0000DAE7221C009801994332089DA847431C3D
:101A100002D10120404220E006232068E1683A68B4
:101A200003400025042B03D18D1AEB43DB171D4027
:101A3000A3682269934201DD9B1AED180027AF428B
:101A40000ADA221C0123009801991A32089EB04735
:101A5000431CDED00137F2E70020FEBDF0B58BB0AD
:101A600006920A1C43320793059004920A7E0C1CCE
:101A7000109B6E2A00D1A8E011D8632A22D009D881
:101A8000002A00D1B2E0582A00D0C2E045310A70E5
:101A90007C4A4FE0642A1DD0692A1BD0B9E0732A22
:101AA00000D1A7E009D86F2A29D0702A00D0B0E071
:101AB000202209680A43226037E0752A1FD0782A5D
:101AC00033D0A6E00E1C1A684236111D1960136847
